{
  "_format": "hh-sol-artifact-1",
  "contractName": "TetherToken",
  "sourceName": "contracts/TetherToken.sol",
  "abi": [
    {
      "inputs": [
        {
          "internalType": "address",
          "name": "_usdtEthPriceFeed",
          "type": "address"
        },
        {
          "internalType": "address",
          "name": "_usdtUsdPriceFeed",
          "type": "address"
        },
        {
          "internalType": "address",
          "name": "_usdtAddress",
          "type": "address"
        },
        {
          "internalType": "address",
          "name": "_uniswapRouter",
          "type": "address"
        }
      ],
      "stateMutability": "nonpayable",
      "type": "constructor"
    },
    {
      "inputs": [
        {
          "internalType": "address",
          "name": "spender",
          "type": "address"
        },
        {
          "internalType": "uint256",
          "name": "allowance",
          "type": "uint256"
        },
        {
          "internalType": "uint256",
          "name": "needed",
          "type": "uint256"
        }
      ],
      "name": "ERC20InsufficientAllowance",
      "type": "error"
    },
    {
      "inputs": [
        {
          "internalType": "address",
          "name": "sender",
          "type": "address"
        },
        {
          "internalType": "uint256",
          "name": "balance",
          "type": "uint256"
        },
        {
          "internalType": "uint256",
          "name": "needed",
          "type": "uint256"
        }
      ],
      "name": "ERC20InsufficientBalance",
      "type": "error"
    },
    {
      "inputs": [
        {
          "internalType": "address",
          "name": "approver",
          "type": "address"
        }
      ],
      "name": "ERC20InvalidApprover",
      "type": "error"
    },
    {
      "inputs": [
        {
          "internalType": "address",
          "name": "receiver",
          "type": "address"
        }
      ],
      "name": "ERC20InvalidReceiver",
      "type": "error"
    },
    {
      "inputs": [
        {
          "internalType": "address",
          "name": "sender",
          "type": "address"
        }
      ],
      "name": "ERC20InvalidSender",
      "type": "error"
    },
    {
      "inputs": [
        {
          "internalType": "address",
          "name": "spender",
          "type": "address"
        }
      ],
      "name": "ERC20InvalidSpender",
      "type": "error"
    },
    {
      "anonymous": false,
      "inputs": [
        {
          "indexed": true,
          "internalType": "address",
          "name": "owner",
          "type": "address"
        },
        {
          "indexed": true,
          "internalType": "address",
          "name": "spender",
          "type": "address"
        },
        {
          "indexed": false,
          "internalType": "uint256",
          "name": "value",
          "type": "uint256"
        }
      ],
      "name": "Approval",
      "type": "event"
    },
    {
      "anonymous": false,
      "inputs": [
        {
          "indexed": false,
          "internalType": "uint256",
          "name": "ethAmount",
          "type": "uint256"
        },
        {
          "indexed": false,
          "internalType": "uint256",
          "name": "tokenAmount",
          "type": "uint256"
        }
      ],
      "name": "ETHSwappedForTokens",
      "type": "event"
    },
    {
      "anonymous": false,
      "inputs": [
        {
          "indexed": false,
          "internalType": "uint256",
          "name": "tokenAmount",
          "type": "uint256"
        },
        {
          "indexed": false,
          "internalType": "uint256",
          "name": "ethAmount",
          "type": "uint256"
        }
      ],
      "name": "LiquidityAdded",
      "type": "event"
    },
    {
      "anonymous": false,
      "inputs": [
        {
          "indexed": false,
          "internalType": "uint256",
          "name": "liquidity",
          "type": "uint256"
        }
      ],
      "name": "LiquidityRemoved",
      "type": "event"
    },
    {
      "anonymous": false,
      "inputs": [
        {
          "indexed": true,
          "internalType": "address",
          "name": "from",
          "type": "address"
        },
        {
          "indexed": false,
          "internalType": "uint256",
          "name": "amount",
          "type": "uint256"
        }
      ],
      "name": "TokensBurned",
      "type": "event"
    },
    {
      "anonymous": false,
      "inputs": [
        {
          "indexed": true,
          "internalType": "address",
          "name": "to",
          "type": "address"
        },
        {
          "indexed": false,
          "internalType": "uint256",
          "name": "amount",
          "type": "uint256"
        }
      ],
      "name": "TokensMinted",
      "type": "event"
    },
    {
      "anonymous": false,
      "inputs": [
        {
          "indexed": false,
          "internalType": "uint256",
          "name": "tokenAmount",
          "type": "uint256"
        },
        {
          "indexed": false,
          "internalType": "uint256",
          "name": "ethReceived",
          "type": "uint256"
        }
      ],
      "name": "TokensSwappedForETH",
      "type": "event"
    },
    {
      "anonymous": false,
      "inputs": [
        {
          "indexed": true,
          "internalType": "address",
          "name": "fromToken",
          "type": "address"
        },
        {
          "indexed": true,
          "internalType": "address",
          "name": "toToken",
          "type": "address"
        },
        {
          "indexed": false,
          "internalType": "uint256",
          "name": "fromAmount",
          "type": "uint256"
        },
        {
          "indexed": false,
          "internalType": "uint256",
          "name": "toAmount",
          "type": "uint256"
        }
      ],
      "name": "TokensSwappedForTokens",
      "type": "event"
    },
    {
      "anonymous": false,
      "inputs": [
        {
          "indexed": true,
          "internalType": "address",
          "name": "from",
          "type": "address"
        },
        {
          "indexed": true,
          "internalType": "address",
          "name": "to",
          "type": "address"
        },
        {
          "indexed": false,
          "internalType": "uint256",
          "name": "value",
          "type": "uint256"
        }
      ],
      "name": "Transfer",
      "type": "event"
    },
    {
      "inputs": [],
      "name": "LIFESPAN",
      "outputs": [
        {
          "internalType": "uint256",
          "name": "",
          "type": "uint256"
        }
      ],
      "stateMutability": "view",
      "type": "function"
    },
    {
      "inputs": [],
      "name": "TOTAL_SUPPLY",
      "outputs": [
        {
          "internalType": "uint256",
          "name": "",
          "type": "uint256"
        }
      ],
      "stateMutability": "view",
      "type": "function"
    },
    {
      "inputs": [
        {
          "internalType": "uint256",
          "name": "tokenAmount",
          "type": "uint256"
        },
        {
          "internalType": "uint256",
          "name": "ethAmount",
          "type": "uint256"
        }
      ],
      "name": "addLiquidity",
      "outputs": [],
      "stateMutability": "nonpayable",
      "type": "function"
    },
    {
      "inputs": [
        {
          "internalType": "address",
          "name": "owner",
          "type": "address"
        },
        {
          "internalType": "address",
          "name": "spender",
          "type": "address"
        }
      ],
      "name": "allowance",
      "outputs": [
        {
          "internalType": "uint256",
          "name": "",
          "type": "uint256"
        }
      ],
      "stateMutability": "view",
      "type": "function"
    },
    {
      "inputs": [
        {
          "internalType": "address",
          "name": "spender",
          "type": "address"
        },
        {
          "internalType": "uint256",
          "name": "value",
          "type": "uint256"
        }
      ],
      "name": "approve",
      "outputs": [
        {
          "internalType": "bool",
          "name": "",
          "type": "bool"
        }
      ],
      "stateMutability": "nonpayable",
      "type": "function"
    },
    {
      "inputs": [
        {
          "internalType": "address",
          "name": "account",
          "type": "address"
        }
      ],
      "name": "balanceOf",
      "outputs": [
        {
          "internalType": "uint256",
          "name": "",
          "type": "uint256"
        }
      ],
      "stateMutability": "view",
      "type": "function"
    },
    {
      "inputs": [
        {
          "internalType": "uint256",
          "name": "amount",
          "type": "uint256"
        }
      ],
      "name": "burn",
      "outputs": [],
      "stateMutability": "nonpayable",
      "type": "function"
    },
    {
      "inputs": [
        {
          "internalType": "address",
          "name": "account",
          "type": "address"
        }
      ],
      "name": "checkUSDTBalance",
      "outputs": [
        {
          "internalType": "uint256",
          "name": "",
          "type": "uint256"
        }
      ],
      "stateMutability": "view",
      "type": "function"
    },
    {
      "inputs": [],
      "name": "decimals",
      "outputs": [
        {
          "internalType": "uint8",
          "name": "",
          "type": "uint8"
        }
      ],
      "stateMutability": "view",
      "type": "function"
    },
    {
      "inputs": [],
      "name": "deploymentTime",
      "outputs": [
        {
          "internalType": "uint256",
          "name": "",
          "type": "uint256"
        }
      ],
      "stateMutability": "view",
      "type": "function"
    },
    {
      "inputs": [],
      "name": "getLatestUsdtEthPrice",
      "outputs": [
        {
          "internalType": "uint256",
          "name": "",
          "type": "uint256"
        }
      ],
      "stateMutability": "view",
      "type": "function"
    },
    {
      "inputs": [],
      "name": "getLatestUsdtUsdPrice",
      "outputs": [
        {
          "internalType": "uint256",
          "name": "",
          "type": "uint256"
        }
      ],
      "stateMutability": "view",
      "type": "function"
    },
    {
      "inputs": [],
      "name": "getTokenPriceInEth",
      "outputs": [
        {
          "internalType": "uint256",
          "name": "",
          "type": "uint256"
        }
      ],
      "stateMutability": "view",
      "type": "function"
    },
    {
      "inputs": [
        {
          "internalType": "address",
          "name": "to",
          "type": "address"
        },
        {
          "internalType": "uint256",
          "name": "amount",
          "type": "uint256"
        }
      ],
      "name": "mint",
      "outputs": [],
      "stateMutability": "nonpayable",
      "type": "function"
    },
    {
      "inputs": [],
      "name": "name",
      "outputs": [
        {
          "internalType": "string",
          "name": "",
          "type": "string"
        }
      ],
      "stateMutability": "view",
      "type": "function"
    },
    {
      "inputs": [],
      "name": "owner",
      "outputs": [
        {
          "internalType": "address",
          "name": "",
          "type": "address"
        }
      ],
      "stateMutability": "view",
      "type": "function"
    },
    {
      "inputs": [
        {
          "internalType": "uint256",
          "name": "liquidity",
          "type": "uint256"
        }
      ],
      "name": "removeLiquidity",
      "outputs": [],
      "stateMutability": "nonpayable",
      "type": "function"
    },
    {
      "inputs": [
        {
          "internalType": "uint256",
          "name": "tokenAmount",
          "type": "uint256"
        }
      ],
      "name": "swapEthForTokens",
      "outputs": [],
      "stateMutability": "payable",
      "type": "function"
    },
    {
      "inputs": [
        {
          "internalType": "uint256",
          "name": "tokenAmount",
          "type": "uint256"
        }
      ],
      "name": "swapTokensForEth",
      "outputs": [],
      "stateMutability": "nonpayable",
      "type": "function"
    },
    {
      "inputs": [
        {
          "internalType": "address",
          "name": "fromToken",
          "type": "address"
        },
        {
          "internalType": "uint256",
          "name": "fromAmount",
          "type": "uint256"
        }
      ],
      "name": "swapTokensForTokens",
      "outputs": [],
      "stateMutability": "nonpayable",
      "type": "function"
    },
    {
      "inputs": [],
      "name": "symbol",
      "outputs": [
        {
          "internalType": "string",
          "name": "",
          "type": "string"
        }
      ],
      "stateMutability": "view",
      "type": "function"
    },
    {
      "inputs": [],
      "name": "totalSupply",
      "outputs": [
        {
          "internalType": "uint256",
          "name": "",
          "type": "uint256"
        }
      ],
      "stateMutability": "view",
      "type": "function"
    },
    {
      "inputs": [
        {
          "internalType": "address",
          "name": "recipient",
          "type": "address"
        },
        {
          "internalType": "uint256",
          "name": "amount",
          "type": "uint256"
        }
      ],
      "name": "transfer",
      "outputs": [
        {
          "internalType": "bool",
          "name": "",
          "type": "bool"
        }
      ],
      "stateMutability": "nonpayable",
      "type": "function"
    },
    {
      "inputs": [
        {
          "internalType": "address",
          "name": "sender",
          "type": "address"
        },
        {
          "internalType": "address",
          "name": "recipient",
          "type": "address"
        },
        {
          "internalType": "uint256",
          "name": "amount",
          "type": "uint256"
        }
      ],
      "name": "transferFrom",
      "outputs": [
        {
          "internalType": "bool",
          "name": "",
          "type": "bool"
        }
      ],
      "stateMutability": "nonpayable",
      "type": "function"
    },
    {
      "inputs": [
        {
          "internalType": "address",
          "name": "recipient",
          "type": "address"
        },
        {
          "internalType": "uint256",
          "name": "amount",
          "type": "uint256"
        }
      ],
      "name": "transferUSDT",
      "outputs": [],
      "stateMutability": "nonpayable",
      "type": "function"
    },
    {
      "inputs": [],
      "name": "uniswapPair",
      "outputs": [
        {
          "internalType": "address",
          "name": "",
          "type": "address"
        }
      ],
      "stateMutability": "view",
      "type": "function"
    },
    {
      "inputs": [],
      "name": "uniswapRouter",
      "outputs": [
        {
          "internalType": "contract IUniswapV2Router02",
          "name": "",
          "type": "address"
        }
      ],
      "stateMutability": "view",
      "type": "function"
    },
    {
      "inputs": [],
      "name": "usdt",
      "outputs": [
        {
          "internalType": "contract IUSDT",
          "name": "",
          "type": "address"
        }
      ],
      "stateMutability": "view",
      "type": "function"
    },
    {
      "stateMutability": "payable",
      "type": "receive"
    }
  ],
  "bytecode": "0x60c06040523480156200001157600080fd5b50604051620027643803806200276483398101604081905262000034916200042c565b6040518060400160405280600a81526020016915195d1a195c881554d160b21b815250604051806040016040528060048152602001631554d11560e21b81525081600390816200008591906200052e565b5060046200009482826200052e565b5050336080819052600580546001600160a01b038881166001600160a01b031992831617909255600680548884169083161790556007805487841690831617905560088054928616929091169190911790554260a052620000fd9150655af3107a40006200029a565b6008546040805163c45a015560e01b815290516000926001600160a01b03169163c45a01559160048083019260209291908290030181865afa15801562000148573d6000803e3d6000fd5b505050506040513d601f19601f820116820180604052508101906200016e9190620005fa565b9050806001600160a01b031663c9c6539630600860009054906101000a90046001600160a01b03166001600160a01b031663ad5c46486040518163ffffffff1660e01b8152600401602060405180830381865afa158015620001d4573d6000803e3d6000fd5b505050506040513d601f19601f82011682018060405250810190620001fa9190620005fa565b6040516001600160e01b031960e085901b1681526001600160a01b039283166004820152911660248201526044016020604051808303816000875af115801562000248573d6000803e3d6000fd5b505050506040513d601f19601f820116820180604052508101906200026e9190620005fa565b600980546001600160a01b0319166001600160a01b039290921691909117905550620006479350505050565b6001600160a01b038216620002ca5760405163ec442f0560e01b8152600060048201526024015b60405180910390fd5b620002d860008383620002dc565b5050565b6001600160a01b0383166200030b578060026000828254620002ff91906200061f565b909155506200037f9050565b6001600160a01b03831660009081526020819052604090205481811015620003605760405163391434e360e21b81526001600160a01b03851660048201526024810182905260448101839052606401620002c1565b6001600160a01b03841660009081526020819052604090209082900390555b6001600160a01b0382166200039d57600280548290039055620003bc565b6001600160a01b03821660009081526020819052604090208054820190555b816001600160a01b0316836001600160a01b03167fddf252ad1be2c89b69c2b068fc378daa952ba7f163c4a11628f55a4df523b3ef836040516200040291815260200190565b60405180910390a3505050565b80516001600160a01b03811681146200042757600080fd5b919050565b600080600080608085870312156200044357600080fd5b6200044e856200040f565b93506200045e602086016200040f565b92506200046e604086016200040f565b91506200047e606086016200040f565b905092959194509250565b634e487b7160e01b600052604160045260246000fd5b600181811c90821680620004b457607f821691505b602082108103620004d557634e487b7160e01b600052602260045260246000fd5b50919050565b601f8211156200052957600081815260208120601f850160051c81016020861015620005045750805b601f850160051c820191505b81811015620005255782815560010162000510565b5050505b505050565b81516001600160401b038111156200054a576200054a62000489565b62000562816200055b84546200049f565b84620004db565b602080601f8311600181146200059a5760008415620005815750858301515b600019600386901b1c1916600185901b17855562000525565b600085815260208120601f198616915b82811015620005cb57888601518255948401946001909101908401620005aa565b5085821015620005ea5787850151600019600388901b60f8161c191681555b5050505050600190811b01905550565b6000602082840312156200060d57600080fd5b62000618826200040f565b9392505050565b808201808211156200064157634e487b7160e01b600052601160045260246000fd5b92915050565b60805160a051612080620006e460003960008181610572015281816106bb01528181610d3001528181610e16015261147b0152600081816103dc015281816107250152818161096b01528181610a5f01528181610bad01528181610ce901528181610dcf01528181610f82015281816111c70152818161127801528181611300015281816114da0152818161163001526116e201526120806000f3fe6080604052600436106101bb5760003560e01c8063850b6843116100ec578063a9059cbb1161008a578063c816841b11610064578063c816841b146104da578063d015ed6a146104fa578063dd62ed3e1461051a578063ecda10f51461056057600080fd5b8063a9059cbb14610482578063b28805f4146104a2578063bffb1468146104c257600080fd5b806395d89b41116100c657806395d89b41146104185780639c8f9f231461042d5780639cd441da1461044d5780639d791e441461046d57600080fd5b8063850b6843146103b55780638da5cb5b146103ca578063902d55a5146103fe57600080fd5b8063313ce5671161015957806340c10f191161013357806340c10f191461031f57806342966c681461033f57806370a082311461035f578063735de9f71461039557600080fd5b8063313ce567146102db5780633435c577146102f75780633aab92741461030a57600080fd5b80631cae2e0a116101955780631cae2e0a1461024157806323b872dd1461026157806328ffdfc6146102815780632f48ab7d146102a357600080fd5b806306fdde03146101c7578063095ea7b3146101f257806318160ddd1461022257600080fd5b366101c257005b600080fd5b3480156101d357600080fd5b506101dc610594565b6040516101e99190611b14565b60405180910390f35b3480156101fe57600080fd5b5061021261020d366004611b7a565b610626565b60405190151581526020016101e9565b34801561022e57600080fd5b506002545b6040519081526020016101e9565b34801561024d57600080fd5b5061023361025c366004611ba6565b610640565b34801561026d57600080fd5b5061021261027c366004611bc3565b6106af565b34801561028d57600080fd5b506102a161029c366004611b7a565b61071a565b005b3480156102af57600080fd5b506007546102c3906001600160a01b031681565b6040516001600160a01b0390911681526020016101e9565b3480156102e757600080fd5b50604051600681526020016101e9565b6102a1610305366004611c04565b610a54565b34801561031657600080fd5b50610233610c5d565b34801561032b57600080fd5b506102a161033a366004611b7a565b610cde565b34801561034b57600080fd5b506102a161035a366004611c04565b610dc4565b34801561036b57600080fd5b5061023361037a366004611ba6565b6001600160a01b031660009081526020819052604090205490565b3480156103a157600080fd5b506008546102c3906001600160a01b031681565b3480156103c157600080fd5b50610233610e9b565b3480156103d657600080fd5b506102c37f000000000000000000000000000000000000000000000000000000000000000081565b34801561040a57600080fd5b50610233655af3107a400081565b34801561042457600080fd5b506101dc610f68565b34801561043957600080fd5b506102a1610448366004611c04565b610f77565b34801561045957600080fd5b506102a1610468366004611c1d565b61126d565b34801561047957600080fd5b506102336113a6565b34801561048e57600080fd5b5061021261049d366004611b7a565b61146f565b3480156104ae57600080fd5b506102a16104bd366004611c04565b6114cf565b3480156104ce57600080fd5b506102336310bcab0081565b3480156104e657600080fd5b506009546102c3906001600160a01b031681565b34801561050657600080fd5b506102a1610515366004611b7a565b6116d7565b34801561052657600080fd5b50610233610535366004611c3f565b6001600160a01b03918216600090815260016020908152604080832093909416825291909152205490565b34801561056c57600080fd5b506102337f000000000000000000000000000000000000000000000000000000000000000081565b6060600380546105a390611c78565b80601f01602080910402602001604051908101604052809291908181526020018280546105cf90611c78565b801561061c5780601f106105f15761010080835404028352916020019161061c565b820191906000526020600020905b8154815290600101906020018083116105ff57829003601f168201915b5050505050905090565b60003361063481858561179b565b60019150505b92915050565b6007546040516370a0823160e01b81526001600160a01b03838116600483015260009216906370a0823190602401602060405180830381865afa15801561068b573d6000803e3d6000fd5b505050506040513d601f19601f8201168201806040525081019061063a9190611cb2565b60006106df6310bcab007f0000000000000000000000000000000000000000000000000000000000000000611ccb565b4211156107075760405162461bcd60e51b81526004016106fe90611cec565b60405180910390fd5b6107128484846117a8565b949350505050565b336001600160a01b037f000000000000000000000000000000000000000000000000000000000000000016146107625760405162461bcd60e51b81526004016106fe90611d1c565b6001600160a01b0382166107b85760405162461bcd60e51b815260206004820152601960248201527f496e76616c69642066726f6d546f6b656e20616464726573730000000000000060448201526064016106fe565b60085460405163095ea7b360e01b81526001600160a01b039182166004820152602481018390529083169063095ea7b3906044016020604051808303816000875af115801561080b573d6000803e3d6000fd5b505050506040513d601f19601f8201168201806040525081019061082f9190611d53565b506040805160038082526080820190925260009160208201606080368337019050509050828160008151811061086757610867611d8b565b6001600160a01b03928316602091820292909201810191909152600854604080516315ab88c960e31b81529051919093169263ad5c46489260048083019391928290030181865afa1580156108c0573d6000803e3d6000fd5b505050506040513d601f19601f820116820180604052508101906108e49190611da1565b816001815181106108f7576108f7611d8b565b60200260200101906001600160a01b031690816001600160a01b031681525050308160028151811061092b5761092b611d8b565b6001600160a01b0392831660209182029290920101526008546040516338ed173960e01b815260009291909116906338ed173990610995908690859087907f0000000000000000000000000000000000000000000000000000000000000000904290600401611e02565b6000604051808303816000875af11580156109b4573d6000803e3d6000fd5b505050506040513d6000823e601f3d908101601f191682016040526109dc9190810190611e3e565b9050306001600160a01b0316846001600160a01b03167f12a5309df64e5f0552bb71b420fd72f4e20f7c86bbebdf6409d92f61057a05d78584600281518110610a2757610a27611d8b565b6020026020010151604051610a46929190918252602082015260400190565b60405180910390a350505050565b336001600160a01b037f00000000000000000000000000000000000000000000000000000000000000001614610a9c5760405162461bcd60e51b81526004016106fe90611d1c565b6040805160028082526060820183526000926020830190803683375050600854604080516315ab88c960e31b815290519394506001600160a01b039091169263ad5c4648925060048083019260209291908290030181865afa158015610b06573d6000803e3d6000fd5b505050506040513d601f19601f82011682018060405250810190610b2a9190611da1565b81600081518110610b3d57610b3d611d8b565b60200260200101906001600160a01b031690816001600160a01b0316815250503081600181518110610b7157610b71611d8b565b6001600160a01b039283166020918202929092010152600854604051637ff36ab560e01b8152911690637ff36ab5903490610bd79060009086907f0000000000000000000000000000000000000000000000000000000000000000904290600401611efc565b60006040518083038185885af1158015610bf5573d6000803e3d6000fd5b50505050506040513d6000823e601f3d908101601f19168201604052610c1e9190810190611e3e565b5060408051348152602081018490527fba8d916e8975a7139d74ea3841b67c8082c4cbbe04a0f1713f36e7737a334f8b91015b60405180910390a15050565b600080610c68610e9b565b905060008111610cc65760405162461bcd60e51b8152602060048201526024808201527f496e76616c6964204554482f5553442070726963652066726f6d20436861696e6044820152636c696e6b60e01b60648201526084016106fe565b610cd881670de0b6b3a7640000611f31565b91505090565b336001600160a01b037f00000000000000000000000000000000000000000000000000000000000000001614610d265760405162461bcd60e51b81526004016106fe90611d1c565b610d546310bcab007f0000000000000000000000000000000000000000000000000000000000000000611ccb565b421115610d735760405162461bcd60e51b81526004016106fe90611cec565b610d7d82826117cc565b816001600160a01b03167f3f2c9d57c068687834f0de942a9babb9e5acab57d516d3480a3c16ee165a427382604051610db891815260200190565b60405180910390a25050565b336001600160a01b037f00000000000000000000000000000000000000000000000000000000000000001614610e0c5760405162461bcd60e51b81526004016106fe90611d1c565b610e3a6310bcab007f0000000000000000000000000000000000000000000000000000000000000000611ccb565b421115610e595760405162461bcd60e51b81526004016106fe90611cec565b610e633382611806565b60405181815233907ffd38818f5291bf0bb3a2a48aadc06ba8757865d1dabd804585338aab3009dcb69060200160405180910390a250565b600080600560009054906101000a90046001600160a01b03166001600160a01b031663feaf968c6040518163ffffffff1660e01b815260040160a060405180830381865afa158015610ef1573d6000803e3d6000fd5b505050506040513d601f19601f82011682018060405250810190610f159190611f6d565b50505091505060008113610f635760405162461bcd60e51b8152602060048201526015602482015274496e76616c6964204554482f55534420707269636560581b60448201526064016106fe565b919050565b6060600480546105a390611c78565b336001600160a01b037f00000000000000000000000000000000000000000000000000000000000000001614610fbf5760405162461bcd60e51b81526004016106fe90611d1c565b6008546040805163c45a015560e01b815290516000926001600160a01b03169163c45a01559160048083019260209291908290030181865afa158015611009573d6000803e3d6000fd5b505050506040513d601f19601f8201168201806040525081019061102d9190611da1565b90506000816001600160a01b031663e6a4390530600860009054906101000a90046001600160a01b03166001600160a01b031663ad5c46486040518163ffffffff1660e01b8152600401602060405180830381865afa158015611094573d6000803e3d6000fd5b505050506040513d601f19601f820116820180604052508101906110b89190611da1565b6040516001600160e01b031960e085901b1681526001600160a01b03928316600482015291166024820152604401602060405180830381865afa158015611103573d6000803e3d6000fd5b505050506040513d601f19601f820116820180604052508101906111279190611da1565b90506001600160a01b03811661117f5760405162461bcd60e51b815260206004820152601860248201527f4c69717569646974792070616972206e6f7420666f756e64000000000000000060448201526064016106fe565b6008546111979030906001600160a01b03168561179b565b600854604051629d473b60e21b81526001600160a01b03909116906302751cec906111f1903090879060009081907f0000000000000000000000000000000000000000000000000000000000000000904290600401611fbd565b60408051808303816000875af115801561120f573d6000803e3d6000fd5b505050506040513d601f19601f820116820180604052508101906112339190611ff8565b50506040518381527f0a2ac2d0ff5dd766a6215edf0289e7aedf3647514518fb2694c0c0584902e7cc9060200160405180910390a1505050565b336001600160a01b037f000000000000000000000000000000000000000000000000000000000000000016146112b55760405162461bcd60e51b81526004016106fe90611d1c565b6008546112cd9030906001600160a01b03168461179b565b60085460405163f305d71960e01b81526001600160a01b039091169063f305d71990839061132a903090879060009081907f0000000000000000000000000000000000000000000000000000000000000000904290600401611fbd565b60606040518083038185885af1158015611348573d6000803e3d6000fd5b50505050506040513d601f19601f8201168201806040525081019061136d919061201c565b505060408051848152602081018490527f38f8a0c92f4c5b0b6877f878cb4c0c8d348a47b76d716c8e78f425043df9515b925001610c51565b600080600660009054906101000a90046001600160a01b03166001600160a01b031663feaf968c6040518163ffffffff1660e01b815260040160a060405180830381865afa1580156113fc573d6000803e3d6000fd5b505050506040513d601f19601f820116820180604052508101906114209190611f6d565b50505091505060008113610f635760405162461bcd60e51b8152602060048201526016602482015275496e76616c696420555344542f55534420707269636560501b60448201526064016106fe565b600061149f6310bcab007f0000000000000000000000000000000000000000000000000000000000000000611ccb565b4211156114be5760405162461bcd60e51b81526004016106fe90611cec565b6114c8838361183c565b9392505050565b336001600160a01b037f000000000000000000000000000000000000000000000000000000000000000016146115175760405162461bcd60e51b81526004016106fe90611d1c565b60085461152f9030906001600160a01b03168361179b565b604080516002808252606082018352600092602083019080368337019050509050308160008151811061156457611564611d8b565b6001600160a01b03928316602091820292909201810191909152600854604080516315ab88c960e31b81529051919093169263ad5c46489260048083019391928290030181865afa1580156115bd573d6000803e3d6000fd5b505050506040513d601f19601f820116820180604052508101906115e19190611da1565b816001815181106115f4576115f4611d8b565b6001600160a01b0392831660209182029290920101526008546040516318cbafe560e01b81529116906318cbafe59061165a90859060009086907f0000000000000000000000000000000000000000000000000000000000000000904290600401611e02565b6000604051808303816000875af1158015611679573d6000803e3d6000fd5b505050506040513d6000823e601f3d908101601f191682016040526116a19190810190611e3e565b50604080518381524760208201527f36a9a8ddccb9a6e60b53280dd3cea8ae4f010efbf6625460af0268cd6513a8359101610c51565b336001600160a01b037f0000000000000000000000000000000000000000000000000000000000000000161461171f5760405162461bcd60e51b81526004016106fe90611d1c565b60075460405163a9059cbb60e01b81526001600160a01b038481166004830152602482018490529091169063a9059cbb906044016020604051808303816000875af1158015611772573d6000803e3d6000fd5b505050506040513d601f19601f820116820180604052508101906117969190611d53565b505050565b611796838383600161184a565b6000336117b6858285611917565b6117c185858561198f565b506001949350505050565b6001600160a01b0382166117f65760405163ec442f0560e01b8152600060048201526024016106fe565b611802600083836119ea565b5050565b6001600160a01b03821661183057604051634b637e8f60e11b8152600060048201526024016106fe565b611802826000836119ea565b60003361063481858561198f565b6001600160a01b0384166118745760405163e602df0560e01b8152600060048201526024016106fe565b6001600160a01b03831661189e57604051634a1406b160e11b8152600060048201526024016106fe565b6001600160a01b038085166000908152600160209081526040808320938716835292905220829055801561191157826001600160a01b0316846001600160a01b03167f8c5be1e5ebec7d5bd14f71427d1e84f3dd0314c0f7b2291e5b200ac8c7c3b92584604051610a4691815260200190565b50505050565b6001600160a01b038381166000908152600160209081526040808320938616835292905220546000198114611911578181101561198057604051637dc7a0d960e11b81526001600160a01b038416600482015260248101829052604481018390526064016106fe565b6119118484848403600061184a565b6001600160a01b0383166119b957604051634b637e8f60e11b8152600060048201526024016106fe565b6001600160a01b0382166119e35760405163ec442f0560e01b8152600060048201526024016106fe565b6117968383835b6001600160a01b038316611a15578060026000828254611a0a9190611ccb565b90915550611a879050565b6001600160a01b03831660009081526020819052604090205481811015611a685760405163391434e360e21b81526001600160a01b038516600482015260248101829052604481018390526064016106fe565b6001600160a01b03841660009081526020819052604090209082900390555b6001600160a01b038216611aa357600280548290039055611ac2565b6001600160a01b03821660009081526020819052604090208054820190555b816001600160a01b0316836001600160a01b03167fddf252ad1be2c89b69c2b068fc378daa952ba7f163c4a11628f55a4df523b3ef83604051611b0791815260200190565b60405180910390a3505050565b600060208083528351808285015260005b81811015611b4157858101830151858201604001528201611b25565b506000604082860101526040601f19601f8301168501019250505092915050565b6001600160a01b0381168114611b7757600080fd5b50565b60008060408385031215611b8d57600080fd5b8235611b9881611b62565b946020939093013593505050565b600060208284031215611bb857600080fd5b81356114c881611b62565b600080600060608486031215611bd857600080fd5b8335611be381611b62565b92506020840135611bf381611b62565b929592945050506040919091013590565b600060208284031215611c1657600080fd5b5035919050565b60008060408385031215611c3057600080fd5b50508035926020909101359150565b60008060408385031215611c5257600080fd5b8235611c5d81611b62565b91506020830135611c6d81611b62565b809150509250929050565b600181811c90821680611c8c57607f821691505b602082108103611cac57634e487b7160e01b600052602260045260246000fd5b50919050565b600060208284031215611cc457600080fd5b5051919050565b8082018082111561063a57634e487b7160e01b600052601160045260246000fd5b602080825260169082015275151bdad95b881b1a59995cdc185b88195e1c1a5c995960521b604082015260600190565b60208082526017908201527f43616c6c6572206973206e6f7420746865206f776e6572000000000000000000604082015260600190565b600060208284031215611d6557600080fd5b815180151581146114c857600080fd5b634e487b7160e01b600052604160045260246000fd5b634e487b7160e01b600052603260045260246000fd5b600060208284031215611db357600080fd5b81516114c881611b62565b600081518084526020808501945080840160005b83811015611df75781516001600160a01b031687529582019590820190600101611dd2565b509495945050505050565b85815284602082015260a060408201526000611e2160a0830186611dbe565b6001600160a01b0394909416606083015250608001529392505050565b60006020808385031215611e5157600080fd5b825167ffffffffffffffff80821115611e6957600080fd5b818501915085601f830112611e7d57600080fd5b815181811115611e8f57611e8f611d75565b8060051b604051601f19603f83011681018181108582111715611eb457611eb4611d75565b604052918252848201925083810185019188831115611ed257600080fd5b938501935b82851015611ef057845184529385019392850192611ed7565b98975050505050505050565b848152608060208201526000611f156080830186611dbe565b6001600160a01b03949094166040830152506060015292915050565b600082611f4e57634e487b7160e01b600052601260045260246000fd5b500490565b805169ffffffffffffffffffff81168114610f6357600080fd5b600080600080600060a08688031215611f8557600080fd5b611f8e86611f53565b9450602086015193506040860151925060608601519150611fb160808701611f53565b90509295509295909350565b6001600160a01b039687168152602081019590955260408501939093526060840191909152909216608082015260a081019190915260c00190565b6000806040838503121561200b57600080fd5b505080516020909101519092909150565b60008060006060848603121561203157600080fd5b835192506020840151915060408401519050925092509256fea2646970667358221220e9be68c348d977dfae58c935f3205aba3c5cc770b00ec7d9db4ac8f2c7bb2e8d64736f6c63430008140033",
  "linkReferences": {},
  "deployedLinkReferences": {}
}